{
  "contractName": "Ownable",
  "abi": [
    {
      "inputs": [],
      "payable": false,
      "stateMutability": "nonpayable",
      "type": "constructor"
    },
    {
      "anonymous": false,
      "inputs": [
        {
          "indexed": false,
          "name": "sender",
          "type": "address"
        },
        {
          "indexed": false,
          "name": "newOwner",
          "type": "address"
        }
      ],
      "name": "EventOwnerChanged",
      "type": "event"
    },
    {
      "constant": false,
      "inputs": [
        {
          "name": "newOwner",
          "type": "address"
        }
      ],
      "name": "changeOwner",
      "outputs": [
        {
          "name": "",
          "type": "bool"
        }
      ],
      "payable": false,
      "stateMutability": "nonpayable",
      "type": "function"
    }
  ],
  "bytecode": "0x608060405234801561001057600080fd5b50336000806101000a81548173ffffffffffffffffffffffffffffffffffffffff021916908373ffffffffffffffffffffffffffffffffffffffff16021790555061025c806100606000396000f3fe608060405234801561001057600080fd5b506004361061002b5760003560e01c8063a6f9dae114610030575b600080fd5b6100726004803603602081101561004657600080fd5b81019080803573ffffffffffffffffffffffffffffffffffffffff16906020019092919050505061008c565b604051808215151515815260200191505060405180910390f35b60008060009054906101000a900473ffffffffffffffffffffffffffffffffffffffff1673ffffffffffffffffffffffffffffffffffffffff163373ffffffffffffffffffffffffffffffffffffffff1614610150576040517f08c379a00000000000000000000000000000000000000000000000000000000081526004018080602001828103825260048152602001807f455f4e4f0000000000000000000000000000000000000000000000000000000081525060200191505060405180910390fd5b816000806101000a81548173ffffffffffffffffffffffffffffffffffffffff021916908373ffffffffffffffffffffffffffffffffffffffff1602179055507f1bbaec5514f2064fe36165fbf6eede6ea2ccebdaf25fdde40cbf12a92d67c3373383604051808373ffffffffffffffffffffffffffffffffffffffff1673ffffffffffffffffffffffffffffffffffffffff1681526020018273ffffffffffffffffffffffffffffffffffffffff1673ffffffffffffffffffffffffffffffffffffffff1681526020019250505060405180910390a16001905091905056fea165627a7a723058209eda4eef6c0016742c5055a54ba681deb4564b0993400d6863e6485ff3b73dc50029",
  "source": "pragma solidity ^0.5.0;\n\ncontract Ownable {\n\n    address owner;\n    event EventOwnerChanged(address sender, address newOwner);\n\n    modifier onlyOwnerAccess {\n        require(\n            msg.sender == owner,\n            \"E_NO\"\n        );\n        _;\n    }\n\n    constructor() public {\n        owner = msg.sender;\n    }\n\n    function changeOwner(address newOwner) public onlyOwnerAccess returns(bool) {\n        owner = newOwner;\n        emit EventOwnerChanged(msg.sender, newOwner);\n        return true;\n    }\n\n}",
  "sourcePath": "/Users/xu/Documents/Ethereum_Projects/B9Lab_Splitter/contracts/Ownable.sol",
  "compiler": {
    "name": "solc",
    "version": "0.5.8+commit.23d335f2.Emscripten.clang"
  },
  "schemaVersion": "3.0.10",
  "updatedAt": "2019-06-12T08:56:17.521Z",
  "devdoc": {
    "methods": {}
  },
  "userdoc": {
    "methods": {}
  }
}