{
  "contractName": "Splitter",
  "abi": [
    {
      "constant": false,
      "inputs": [],
      "name": "pauseContract",
      "outputs": [
        {
          "name": "",
          "type": "bool"
        }
      ],
      "payable": false,
      "stateMutability": "nonpayable",
      "type": "function"
    },
    {
      "constant": false,
      "inputs": [
        {
          "name": "newOwner",
          "type": "address"
        }
      ],
      "name": "changeOwner",
      "outputs": [
        {
          "name": "",
          "type": "bool"
        }
      ],
      "payable": false,
      "stateMutability": "nonpayable",
      "type": "function"
    },
    {
      "constant": false,
      "inputs": [],
      "name": "resumeContract",
      "outputs": [
        {
          "name": "",
          "type": "bool"
        }
      ],
      "payable": false,
      "stateMutability": "nonpayable",
      "type": "function"
    },
    {
      "inputs": [
        {
          "name": "deployAsRunning",
          "type": "bool"
        }
      ],
      "payable": false,
      "stateMutability": "nonpayable",
      "type": "constructor"
    },
    {
      "anonymous": false,
      "inputs": [
        {
          "indexed": true,
          "name": "sender",
          "type": "address"
        },
        {
          "indexed": false,
          "name": "amount",
          "type": "uint256"
        }
      ],
      "name": "fundsReceived",
      "type": "event"
    },
    {
      "anonymous": false,
      "inputs": [
        {
          "indexed": true,
          "name": "sender",
          "type": "address"
        },
        {
          "indexed": false,
          "name": "amount",
          "type": "uint256"
        }
      ],
      "name": "fundsSplit",
      "type": "event"
    },
    {
      "anonymous": false,
      "inputs": [
        {
          "indexed": true,
          "name": "receiver",
          "type": "address"
        },
        {
          "indexed": false,
          "name": "amount",
          "type": "uint256"
        }
      ],
      "name": "fundsSent",
      "type": "event"
    },
    {
      "anonymous": false,
      "inputs": [
        {
          "indexed": false,
          "name": "sender",
          "type": "address"
        }
      ],
      "name": "eventPausedContract",
      "type": "event"
    },
    {
      "anonymous": false,
      "inputs": [
        {
          "indexed": false,
          "name": "sender",
          "type": "address"
        }
      ],
      "name": "eventResumedContract",
      "type": "event"
    },
    {
      "anonymous": false,
      "inputs": [
        {
          "indexed": false,
          "name": "sender",
          "type": "address"
        },
        {
          "indexed": false,
          "name": "newOwner",
          "type": "address"
        }
      ],
      "name": "eventOwnerChanged",
      "type": "event"
    },
    {
      "constant": false,
      "inputs": [
        {
          "name": "dst1",
          "type": "address"
        },
        {
          "name": "dst2",
          "type": "address"
        }
      ],
      "name": "splitAndSend",
      "outputs": [
        {
          "name": "",
          "type": "bool"
        }
      ],
      "payable": true,
      "stateMutability": "payable",
      "type": "function"
    }
  ],
  "bytecode": "0x608060405234801561001057600080fd5b50604051602080610f2d8339810180604052602081101561003057600080fd5b810190808051906020019092919050505080336000806101000a81548173ffffffffffffffffffffffffffffffffffffffff021916908373ffffffffffffffffffffffffffffffffffffffff16021790555080600060146101000a81548160ff0219169083151502179055505050610e80806100ad6000396000f3fe60806040526004361061003f5760003560e01c8063439766ce14610044578063a6f9dae114610073578063c4bc5da5146100dc578063e3dc7b281461010b575b600080fd5b34801561005057600080fd5b50610059610187565b604051808215151515815260200191505060405180910390f35b34801561007f57600080fd5b506100c26004803603602081101561009657600080fd5b81019080803573ffffffffffffffffffffffffffffffffffffffff169060200190929190505050610351565b604051808215151515815260200191505060405180910390f35b3480156100e857600080fd5b506100f16104f5565b604051808215151515815260200191505060405180910390f35b61016d6004803603604081101561012157600080fd5b81019080803573ffffffffffffffffffffffffffffffffffffffff169060200190929190803573ffffffffffffffffffffffffffffffffffffffff1690602001909291905050506106c1565b604051808215151515815260200191505060405180910390f35b60008060009054906101000a900473ffffffffffffffffffffffffffffffffffffffff1673ffffffffffffffffffffffffffffffffffffffff163373ffffffffffffffffffffffffffffffffffffffff161461024b576040517f08c379a00000000000000000000000000000000000000000000000000000000081526004018080602001828103825260048152602001807f455f4e4f0000000000000000000000000000000000000000000000000000000081525060200191505060405180910390fd5b600060149054906101000a900460ff166102cd576040517f08c379a00000000000000000000000000000000000000000000000000000000081526004018080602001828103825260048152602001807f455f4e520000000000000000000000000000000000000000000000000000000081525060200191505060405180910390fd5b60008060146101000a81548160ff0219169083151502179055507f8c046ac297c31d8824de7c014cce6b547d154c98725c3fee831feb0371001fdd33604051808273ffffffffffffffffffffffffffffffffffffffff1673ffffffffffffffffffffffffffffffffffffffff16815260200191505060405180910390a16001905090565b60008060009054906101000a900473ffffffffffffffffffffffffffffffffffffffff1673ffffffffffffffffffffffffffffffffffffffff163373ffffffffffffffffffffffffffffffffffffffff1614610415576040517f08c379a00000000000000000000000000000000000000000000000000000000081526004018080602001828103825260048152602001807f455f4e4f0000000000000000000000000000000000000000000000000000000081525060200191505060405180910390fd5b816000806101000a81548173ffffffffffffffffffffffffffffffffffffffff021916908373ffffffffffffffffffffffffffffffffffffffff1602179055507f1107caf85c8f5e53d5e72224bfb91c64e0b98e51cd09737bcf2a21b0c89581c63383604051808373ffffffffffffffffffffffffffffffffffffffff1673ffffffffffffffffffffffffffffffffffffffff1681526020018273ffffffffffffffffffffffffffffffffffffffff1673ffffffffffffffffffffffffffffffffffffffff1681526020019250505060405180910390a160019050919050565b60008060009054906101000a900473ffffffffffffffffffffffffffffffffffffffff1673ffffffffffffffffffffffffffffffffffffffff163373ffffffffffffffffffffffffffffffffffffffff16146105b9576040517f08c379a00000000000000000000000000000000000000000000000000000000081526004018080602001828103825260048152602001807f455f4e4f0000000000000000000000000000000000000000000000000000000081525060200191505060405180910390fd5b600060149054906101000a900460ff161561063c576040517f08c379a00000000000000000000000000000000000000000000000000000000081526004018080602001828103825260048152602001807f455f4e500000000000000000000000000000000000000000000000000000000081525060200191505060405180910390fd5b6001600060146101000a81548160ff0219169083151502179055507f2bc567dca7048c22f842593ab6b1e7984a6fa4b81b58c2ff364add19dbe3d72b33604051808273ffffffffffffffffffffffffffffffffffffffff1673ffffffffffffffffffffffffffffffffffffffff16815260200191505060405180910390a16001905090565b60008282600073ffffffffffffffffffffffffffffffffffffffff168273ffffffffffffffffffffffffffffffffffffffff161415801561072f5750600073ffffffffffffffffffffffffffffffffffffffff168173ffffffffffffffffffffffffffffffffffffffff1614155b6107a1576040517f08c379a00000000000000000000000000000000000000000000000000000000081526004018080602001828103825260048152602001807f455f5a410000000000000000000000000000000000000000000000000000000081525060200191505060405180910390fd5b60003411610817576040517f08c379a00000000000000000000000000000000000000000000000000000000081526004018080602001828103825260048152602001807f455f49460000000000000000000000000000000000000000000000000000000081525060200191505060405180910390fd5b600061082d600234610a4990919063ffffffff16565b146108a0576040517f08c379a00000000000000000000000000000000000000000000000000000000081526004018080602001828103825260048152602001807f455f464f0000000000000000000000000000000000000000000000000000000081525060200191505060405180910390fd5b3373ffffffffffffffffffffffffffffffffffffffff167f445ab35117cf4b171680957d35f1a089ded7f4608bdef1797b266df9d930f28e346040518082815260200191505060405180910390a261094034600160003373ffffffffffffffffffffffffffffffffffffffff1673ffffffffffffffffffffffffffffffffffffffff16815260200190815260200160002054610ab690919063ffffffff16565b600160003373ffffffffffffffffffffffffffffffffffffffff1673ffffffffffffffffffffffffffffffffffffffff1681526020019081526020016000208190555060006109d86002600160003373ffffffffffffffffffffffffffffffffffffffff1673ffffffffffffffffffffffffffffffffffffffff16815260200190815260200160002054610b2190919063ffffffff16565b90503373ffffffffffffffffffffffffffffffffffffffff167f091e58c642868e2d8d50e8b9f6c16700510e9844b3823d53f7a59fa6cc9893ab826040518082815260200191505060405180910390a2610a328682610b93565b610a3c8582610b93565b6001935050505092915050565b600080821415610aa4576040517f08c379a0000000000000000000000000000000000000000000000000000000008152600401808060200182810382526023815260200180610e326023913960400191505060405180910390fd5b818381610aad57fe5b06905092915050565b600080828401905083811015610b17576040517f08c379a0000000000000000000000000000000000000000000000000000000008152600401808060200182810382526024815260200180610e0e6024913960400191505060405180910390fd5b8091505092915050565b6000808211610b7b576040517f08c379a0000000000000000000000000000000000000000000000000000000008152600401808060200182810382526024815260200180610dea6024913960400191505060405180910390fd5b6000828481610b8657fe5b0490508091505092915050565b8173ffffffffffffffffffffffffffffffffffffffff166108fc829081150290604051600060405180830381858888f19350505050158015610bd9573d6000803e3d6000fd5b508173ffffffffffffffffffffffffffffffffffffffff167fb6acc3187b2c268cf0f33cc6f2421e22b66a522365683a849cc17d90c9305d03826040518082815260200191505060405180910390a2610c7a81600160003373ffffffffffffffffffffffffffffffffffffffff1673ffffffffffffffffffffffffffffffffffffffff16815260200190815260200160002054610d5690919063ffffffff16565b600160003373ffffffffffffffffffffffffffffffffffffffff1673ffffffffffffffffffffffffffffffffffffffff16815260200190815260200160002081905550610d0f81600160008573ffffffffffffffffffffffffffffffffffffffff1673ffffffffffffffffffffffffffffffffffffffff16815260200190815260200160002054610ab690919063ffffffff16565b600160008473ffffffffffffffffffffffffffffffffffffffff1673ffffffffffffffffffffffffffffffffffffffff168152602001908152602001600020819055505050565b600082821115610db1576040517f08c379a0000000000000000000000000000000000000000000000000000000008152600401808060200182810382526027815260200180610dc36027913960400191505060405180910390fd5b60008284039050809150509291505056fe536166654d6174683a205375627472616374696f6e20617373657274696f6e206661696c65642e536166654d6174683a204469766973696f6e20617373657274696f6e206661696c65642e536166654d6174683a204164646974696f6e20617373657274696f6e206661696c65642e536166654d6174683a204d6f64756c757320617373657274696f6e206661696c65642ea165627a7a723058202bbd1c9c0fc6748ab8c9f6d898641b821c6f9cde8537322ba3ed85de9fe8d95b0029",
  "source": "pragma solidity ^0.5.0;\n\nimport \"./SafeMath.sol\";\nimport \"./BaseContract.sol\";\n\ncontract Splitter is Stoppable {\n\n    using SafeMath for uint256;\n\n    mapping (address => uint) balance;\n    event fundsReceived(address indexed sender, uint amount);\n    event fundsSplit(address indexed sender, uint amount);\n    event fundsSent(address indexed receiver, uint amount);\n\n    constructor(bool deployAsRunning) public Stoppable(deployAsRunning) {}\n\n    modifier addressNonZero(address dst1, address dst2) {\n        require(\n            (dst1 != address(0)) && (dst2 != address(0)),\n            \"E_ZA\"\n        );\n        _;\n    }\n\n    modifier sufficientIncomingFunds {\n        require(\n            msg.value > 0,\n            \"E_IF\"\n        );\n        _;\n    }\n\n    modifier incomingFundsEven {\n        require(\n            msg.value.mod(2) == 0,\n            \"E_FO\"\n        );\n        _;\n    }\n\n    function splitAndSend(address payable dst1, address payable dst2) public payable\n    addressNonZero(dst1, dst2) sufficientIncomingFunds incomingFundsEven\n    returns (bool) {\n        emit fundsReceived(msg.sender, msg.value);\n        balance[msg.sender] = balance[msg.sender].add(msg.value);\n        uint splitBalance = balance[msg.sender].div(2);\n        emit fundsSplit(msg.sender, splitBalance);\n        sendFunds(dst1, splitBalance);\n        sendFunds(dst2, splitBalance);\n        return true;\n    }\n\n    function sendFunds(address payable dst, uint amount) private {\n        dst.transfer(amount);\n        emit fundsSent(dst, amount);\n        balance[msg.sender] = balance[msg.sender].sub(amount);\n        balance[dst] = balance[dst].add(amount);\n    }\n\n}",
  "sourcePath": "/Users/xu/Documents/Ethereum_Projects/B9Lab_Splitter/contracts/Splitter.sol",
  "compiler": {
    "name": "solc",
    "version": "0.5.8+commit.23d335f2.Emscripten.clang"
  },
  "schemaVersion": "3.0.10",
  "updatedAt": "2019-06-10T23:34:41.297Z",
  "devdoc": {
    "methods": {}
  },
  "userdoc": {
    "methods": {}
  }
}