{
  "contractName": "Splitter",
  "abi": [
    {
      "constant": false,
      "inputs": [],
      "name": "pauseContract",
      "outputs": [
        {
          "name": "",
          "type": "bool"
        }
      ],
      "payable": false,
      "stateMutability": "nonpayable",
      "type": "function"
    },
    {
      "constant": false,
      "inputs": [
        {
          "name": "newOwner",
          "type": "address"
        }
      ],
      "name": "changeOwner",
      "outputs": [
        {
          "name": "",
          "type": "bool"
        }
      ],
      "payable": false,
      "stateMutability": "nonpayable",
      "type": "function"
    },
    {
      "constant": false,
      "inputs": [],
      "name": "resumeContract",
      "outputs": [
        {
          "name": "",
          "type": "bool"
        }
      ],
      "payable": false,
      "stateMutability": "nonpayable",
      "type": "function"
    },
    {
      "inputs": [
        {
          "name": "deployAsRunning",
          "type": "bool"
        }
      ],
      "payable": false,
      "stateMutability": "nonpayable",
      "type": "constructor"
    },
    {
      "anonymous": false,
      "inputs": [
        {
          "indexed": true,
          "name": "receiver",
          "type": "address"
        },
        {
          "indexed": false,
          "name": "amount",
          "type": "uint256"
        }
      ],
      "name": "FundsWithdrawn",
      "type": "event"
    },
    {
      "anonymous": false,
      "inputs": [
        {
          "indexed": true,
          "name": "sender",
          "type": "address"
        },
        {
          "indexed": true,
          "name": "dst1",
          "type": "address"
        },
        {
          "indexed": true,
          "name": "dst2",
          "type": "address"
        },
        {
          "indexed": false,
          "name": "amount",
          "type": "uint256"
        }
      ],
      "name": "FundsReceivedAndStored",
      "type": "event"
    },
    {
      "anonymous": false,
      "inputs": [
        {
          "indexed": false,
          "name": "sender",
          "type": "address"
        }
      ],
      "name": "EventPausedContract",
      "type": "event"
    },
    {
      "anonymous": false,
      "inputs": [
        {
          "indexed": false,
          "name": "sender",
          "type": "address"
        }
      ],
      "name": "EventResumedContract",
      "type": "event"
    },
    {
      "anonymous": false,
      "inputs": [
        {
          "indexed": false,
          "name": "sender",
          "type": "address"
        },
        {
          "indexed": false,
          "name": "newOwner",
          "type": "address"
        }
      ],
      "name": "EventOwnerChanged",
      "type": "event"
    },
    {
      "constant": false,
      "inputs": [
        {
          "name": "dst1",
          "type": "address"
        },
        {
          "name": "dst2",
          "type": "address"
        }
      ],
      "name": "depositAndStore",
      "outputs": [
        {
          "name": "",
          "type": "bool"
        }
      ],
      "payable": true,
      "stateMutability": "payable",
      "type": "function"
    },
    {
      "constant": false,
      "inputs": [
        {
          "name": "amount",
          "type": "uint256"
        }
      ],
      "name": "withdraw",
      "outputs": [
        {
          "name": "",
          "type": "bool"
        }
      ],
      "payable": false,
      "stateMutability": "nonpayable",
      "type": "function"
    },
    {
      "constant": true,
      "inputs": [],
      "name": "getBalance",
      "outputs": [
        {
          "name": "",
          "type": "uint256"
        }
      ],
      "payable": false,
      "stateMutability": "view",
      "type": "function"
    }
  ],
  "bytecode": "0x608060405234801561001057600080fd5b506040516020806111568339810180604052602081101561003057600080fd5b810190808051906020019092919050505080336000806101000a81548173ffffffffffffffffffffffffffffffffffffffff021916908373ffffffffffffffffffffffffffffffffffffffff16021790555080600060146101000a81548160ff02191690831515021790555050506110a9806100ad6000396000f3fe6080604052600436106100555760003560e01c806312065fe01461005a5780632e1a7d4d14610085578063439766ce146100d85780638bf8754714610107578063a6f9dae114610183578063c4bc5da5146101ec575b600080fd5b34801561006657600080fd5b5061006f61021b565b6040518082815260200191505060405180910390f35b34801561009157600080fd5b506100be600480360360208110156100a857600080fd5b8101908080359060200190929190505050610262565b604051808215151515815260200191505060405180910390f35b3480156100e457600080fd5b506100ed6104cf565b604051808215151515815260200191505060405180910390f35b6101696004803603604081101561011d57600080fd5b81019080803573ffffffffffffffffffffffffffffffffffffffff169060200190929190803573ffffffffffffffffffffffffffffffffffffffff169060200190929190505050610699565b604051808215151515815260200191505060405180910390f35b34801561018f57600080fd5b506101d2600480360360208110156101a657600080fd5b81019080803573ffffffffffffffffffffffffffffffffffffffff169060200190929190505050610ac5565b604051808215151515815260200191505060405180910390f35b3480156101f857600080fd5b50610201610c69565b604051808215151515815260200191505060405180910390f35b6000600160003373ffffffffffffffffffffffffffffffffffffffff1673ffffffffffffffffffffffffffffffffffffffff16815260200190815260200160002054905090565b60008060149054906101000a900460ff166102e5576040517f08c379a00000000000000000000000000000000000000000000000000000000081526004018080602001828103825260048152602001807f455f4e520000000000000000000000000000000000000000000000000000000081525060200191505060405180910390fd5b8180600160003373ffffffffffffffffffffffffffffffffffffffff1673ffffffffffffffffffffffffffffffffffffffff16815260200190815260200160002054101561039b576040517f08c379a00000000000000000000000000000000000000000000000000000000081526004018080602001828103825260048152602001807f455f49420000000000000000000000000000000000000000000000000000000081525060200191505060405180910390fd5b3373ffffffffffffffffffffffffffffffffffffffff166108fc849081150290604051600060405180830381858888f193505050501580156103e1573d6000803e3d6000fd5b5061043483600160003373ffffffffffffffffffffffffffffffffffffffff1673ffffffffffffffffffffffffffffffffffffffff16815260200190815260200160002054610e3590919063ffffffff16565b600160003373ffffffffffffffffffffffffffffffffffffffff1673ffffffffffffffffffffffffffffffffffffffff168152602001908152602001600020819055503373ffffffffffffffffffffffffffffffffffffffff167feaff4b37086828766ad3268786972c0cd24259d4c87a80f9d3963a3c3d999b0d846040518082815260200191505060405180910390a26001915050919050565b60008060009054906101000a900473ffffffffffffffffffffffffffffffffffffffff1673ffffffffffffffffffffffffffffffffffffffff163373ffffffffffffffffffffffffffffffffffffffff1614610593576040517f08c379a00000000000000000000000000000000000000000000000000000000081526004018080602001828103825260048152602001807f455f4e4f0000000000000000000000000000000000000000000000000000000081525060200191505060405180910390fd5b600060149054906101000a900460ff16610615576040517f08c379a00000000000000000000000000000000000000000000000000000000081526004018080602001828103825260048152602001807f455f4e520000000000000000000000000000000000000000000000000000000081525060200191505060405180910390fd5b60008060146101000a81548160ff0219169083151502179055507f78444377285ab742a078a4b05a68305f985d326b4913261194deeba07eb4b3b533604051808273ffffffffffffffffffffffffffffffffffffffff1673ffffffffffffffffffffffffffffffffffffffff16815260200191505060405180910390a16001905090565b60008282600073ffffffffffffffffffffffffffffffffffffffff168273ffffffffffffffffffffffffffffffffffffffff16141580156107075750600073ffffffffffffffffffffffffffffffffffffffff168173ffffffffffffffffffffffffffffffffffffffff1614155b610779576040517f08c379a00000000000000000000000000000000000000000000000000000000081526004018080602001828103825260048152602001807f455f5a410000000000000000000000000000000000000000000000000000000081525060200191505060405180910390fd5b600060149054906101000a900460ff166107fb576040517f08c379a00000000000000000000000000000000000000000000000000000000081526004018080602001828103825260048152602001807f455f4e520000000000000000000000000000000000000000000000000000000081525060200191505060405180910390fd5b60003411610871576040517f08c379a00000000000000000000000000000000000000000000000000000000081526004018080602001828103825260048152602001807f455f49460000000000000000000000000000000000000000000000000000000081525060200191505060405180910390fd5b6000610887600234610ea190919063ffffffff16565b146108fa576040517f08c379a00000000000000000000000000000000000000000000000000000000081526004018080602001828103825260048152602001807f455f464f0000000000000000000000000000000000000000000000000000000081525060200191505060405180910390fd5b6000610910600234610f0e90919063ffffffff16565b905061096481600160008973ffffffffffffffffffffffffffffffffffffffff1673ffffffffffffffffffffffffffffffffffffffff16815260200190815260200160002054610f8090919063ffffffff16565b600160008873ffffffffffffffffffffffffffffffffffffffff1673ffffffffffffffffffffffffffffffffffffffff168152602001908152602001600020819055506109f981600160008873ffffffffffffffffffffffffffffffffffffffff1673ffffffffffffffffffffffffffffffffffffffff16815260200190815260200160002054610f8090919063ffffffff16565b600160008773ffffffffffffffffffffffffffffffffffffffff1673ffffffffffffffffffffffffffffffffffffffff168152602001908152602001600020819055508473ffffffffffffffffffffffffffffffffffffffff168673ffffffffffffffffffffffffffffffffffffffff163373ffffffffffffffffffffffffffffffffffffffff167fecffc4fcf447fb9220ef26244e47a73a3867f85f93a773cba8a753adeded36ac846040518082815260200191505060405180910390a46001935050505092915050565b60008060009054906101000a900473ffffffffffffffffffffffffffffffffffffffff1673ffffffffffffffffffffffffffffffffffffffff163373ffffffffffffffffffffffffffffffffffffffff1614610b89576040517f08c379a00000000000000000000000000000000000000000000000000000000081526004018080602001828103825260048152602001807f455f4e4f0000000000000000000000000000000000000000000000000000000081525060200191505060405180910390fd5b816000806101000a81548173ffffffffffffffffffffffffffffffffffffffff021916908373ffffffffffffffffffffffffffffffffffffffff1602179055507f1bbaec5514f2064fe36165fbf6eede6ea2ccebdaf25fdde40cbf12a92d67c3373383604051808373ffffffffffffffffffffffffffffffffffffffff1673ffffffffffffffffffffffffffffffffffffffff1681526020018273ffffffffffffffffffffffffffffffffffffffff1673ffffffffffffffffffffffffffffffffffffffff1681526020019250505060405180910390a160019050919050565b60008060009054906101000a900473ffffffffffffffffffffffffffffffffffffffff1673ffffffffffffffffffffffffffffffffffffffff163373ffffffffffffffffffffffffffffffffffffffff1614610d2d576040517f08c379a00000000000000000000000000000000000000000000000000000000081526004018080602001828103825260048152602001807f455f4e4f0000000000000000000000000000000000000000000000000000000081525060200191505060405180910390fd5b600060149054906101000a900460ff1615610db0576040517f08c379a00000000000000000000000000000000000000000000000000000000081526004018080602001828103825260048152602001807f455f4e500000000000000000000000000000000000000000000000000000000081525060200191505060405180910390fd5b6001600060146101000a81548160ff0219169083151502179055507f2b2f45c94c569f5113ed5abe2ff6a15bcbf82f59654311dc55ceb3af23ff739033604051808273ffffffffffffffffffffffffffffffffffffffff1673ffffffffffffffffffffffffffffffffffffffff16815260200191505060405180910390a16001905090565b600082821115610e90576040517f08c379a0000000000000000000000000000000000000000000000000000000008152600401808060200182810382526027815260200180610fec6027913960400191505060405180910390fd5b600082840390508091505092915050565b600080821415610efc576040517f08c379a000000000000000000000000000000000000000000000000000000000815260040180806020018281038252602381526020018061105b6023913960400191505060405180910390fd5b818381610f0557fe5b06905092915050565b6000808211610f68576040517f08c379a00000000000000000000000000000000000000000000000000000000081526004018080602001828103825260248152602001806110136024913960400191505060405180910390fd5b6000828481610f7357fe5b0490508091505092915050565b600080828401905083811015610fe1576040517f08c379a00000000000000000000000000000000000000000000000000000000081526004018080602001828103825260248152602001806110376024913960400191505060405180910390fd5b809150509291505056fe536166654d6174683a205375627472616374696f6e20617373657274696f6e206661696c65642e536166654d6174683a204469766973696f6e20617373657274696f6e206661696c65642e536166654d6174683a204164646974696f6e20617373657274696f6e206661696c65642e536166654d6174683a204d6f64756c757320617373657274696f6e206661696c65642ea165627a7a72305820ca725f41d0987380d079ef61981f2e4923b6959b595bda4a19475ad3d8631dc70029",
  "source": "pragma solidity ^0.5.0;\n\nimport \"./SafeMath.sol\";\nimport \"./Ownable.sol\";\nimport \"./Stoppable.sol\";\n\ncontract Splitter is Stoppable {\n\n    using SafeMath for uint256;\n\n    mapping (address => uint) balance;\n    event FundsWithdrawn(address indexed receiver, uint amount);\n    event FundsReceivedAndStored(address indexed sender, address indexed dst1, address indexed dst2, uint amount);\n\n    constructor(bool deployAsRunning) public Stoppable(deployAsRunning) {}\n\n    modifier addressNonZero(address dst1, address dst2) {\n        require(\n            (dst1 != address(0)) && (dst2 != address(0)),\n            \"E_ZA\"\n        );\n        _;\n    }\n\n    modifier sufficientIncomingFunds {\n        require(\n            msg.value > 0,\n            \"E_IF\"\n        );\n        _;\n    }\n\n    modifier incomingFundsEven {\n        require(\n            msg.value.mod(2) == 0,\n            \"E_FO\"\n        );\n        _;\n    }\n\n    modifier sufficientBalanceForWithdrawal(uint requestedAmount) {\n        require(\n            balance[msg.sender] >= requestedAmount,\n            \"E_IB\"\n        );\n        _;\n    }\n\n    function depositAndStore(address payable dst1, address payable dst2) public payable\n    addressNonZero(dst1, dst2) onlyIfRunning sufficientIncomingFunds incomingFundsEven returns (bool) {\n        uint splitBalance = msg.value.div(2);\n        balance[dst1] = balance[dst1].add(splitBalance);\n        balance[dst2] = balance[dst2].add(splitBalance);\n        emit FundsReceivedAndStored(msg.sender, dst1, dst2, splitBalance);\n        return true;\n    }\n\n    function withdraw(uint amount) public onlyIfRunning sufficientBalanceForWithdrawal(amount) returns (bool) {\n        msg.sender.transfer(amount);\n        balance[msg.sender] = balance[msg.sender].sub(amount);\n        emit FundsWithdrawn(msg.sender, amount);\n        return true;\n    }\n\n    function getBalance() public view returns (uint) {\n        return balance[msg.sender];\n    }\n\n}",
  "sourcePath": "/Users/xu/Documents/Ethereum_Projects/B9Lab_Splitter/contracts/Splitter.sol",
  "compiler": {
    "name": "solc",
    "version": "0.5.8+commit.23d335f2.Emscripten.clang"
  },
  "schemaVersion": "3.0.10",
  "updatedAt": "2019-06-12T08:56:17.524Z",
  "devdoc": {
    "methods": {}
  },
  "userdoc": {
    "methods": {}
  }
}