{
  "contractName": "Stoppable",
  "abi": [
    {
      "constant": false,
      "inputs": [
        {
          "name": "newOwner",
          "type": "address"
        }
      ],
      "name": "changeOwner",
      "outputs": [
        {
          "name": "",
          "type": "bool"
        }
      ],
      "payable": false,
      "stateMutability": "nonpayable",
      "type": "function"
    },
    {
      "inputs": [
        {
          "name": "deployAsRunning",
          "type": "bool"
        }
      ],
      "payable": false,
      "stateMutability": "nonpayable",
      "type": "constructor"
    },
    {
      "anonymous": false,
      "inputs": [
        {
          "indexed": false,
          "name": "sender",
          "type": "address"
        }
      ],
      "name": "EventPausedContract",
      "type": "event"
    },
    {
      "anonymous": false,
      "inputs": [
        {
          "indexed": false,
          "name": "sender",
          "type": "address"
        }
      ],
      "name": "EventResumedContract",
      "type": "event"
    },
    {
      "anonymous": false,
      "inputs": [
        {
          "indexed": false,
          "name": "sender",
          "type": "address"
        },
        {
          "indexed": false,
          "name": "newOwner",
          "type": "address"
        }
      ],
      "name": "EventOwnerChanged",
      "type": "event"
    },
    {
      "constant": false,
      "inputs": [],
      "name": "pauseContract",
      "outputs": [
        {
          "name": "",
          "type": "bool"
        }
      ],
      "payable": false,
      "stateMutability": "nonpayable",
      "type": "function"
    },
    {
      "constant": false,
      "inputs": [],
      "name": "resumeContract",
      "outputs": [
        {
          "name": "",
          "type": "bool"
        }
      ],
      "payable": false,
      "stateMutability": "nonpayable",
      "type": "function"
    }
  ],
  "bytecode": "0x608060405234801561001057600080fd5b506040516020806106f78339810180604052602081101561003057600080fd5b8101908080519060200190929190505050336000806101000a81548173ffffffffffffffffffffffffffffffffffffffff021916908373ffffffffffffffffffffffffffffffffffffffff16021790555080600060146101000a81548160ff0219169083151502179055505061064c806100ab6000396000f3fe608060405234801561001057600080fd5b50600436106100415760003560e01c8063439766ce14610046578063a6f9dae114610068578063c4bc5da5146100c4575b600080fd5b61004e6100e6565b604051808215151515815260200191505060405180910390f35b6100aa6004803603602081101561007e57600080fd5b81019080803573ffffffffffffffffffffffffffffffffffffffff1690602001909291905050506102b0565b604051808215151515815260200191505060405180910390f35b6100cc610454565b604051808215151515815260200191505060405180910390f35b60008060009054906101000a900473ffffffffffffffffffffffffffffffffffffffff1673ffffffffffffffffffffffffffffffffffffffff163373ffffffffffffffffffffffffffffffffffffffff16146101aa576040517f08c379a00000000000000000000000000000000000000000000000000000000081526004018080602001828103825260048152602001807f455f4e4f0000000000000000000000000000000000000000000000000000000081525060200191505060405180910390fd5b600060149054906101000a900460ff1661022c576040517f08c379a00000000000000000000000000000000000000000000000000000000081526004018080602001828103825260048152602001807f455f4e520000000000000000000000000000000000000000000000000000000081525060200191505060405180910390fd5b60008060146101000a81548160ff0219169083151502179055507f78444377285ab742a078a4b05a68305f985d326b4913261194deeba07eb4b3b533604051808273ffffffffffffffffffffffffffffffffffffffff1673ffffffffffffffffffffffffffffffffffffffff16815260200191505060405180910390a16001905090565b60008060009054906101000a900473ffffffffffffffffffffffffffffffffffffffff1673ffffffffffffffffffffffffffffffffffffffff163373ffffffffffffffffffffffffffffffffffffffff1614610374576040517f08c379a00000000000000000000000000000000000000000000000000000000081526004018080602001828103825260048152602001807f455f4e4f0000000000000000000000000000000000000000000000000000000081525060200191505060405180910390fd5b816000806101000a81548173ffffffffffffffffffffffffffffffffffffffff021916908373ffffffffffffffffffffffffffffffffffffffff1602179055507f1bbaec5514f2064fe36165fbf6eede6ea2ccebdaf25fdde40cbf12a92d67c3373383604051808373ffffffffffffffffffffffffffffffffffffffff1673ffffffffffffffffffffffffffffffffffffffff1681526020018273ffffffffffffffffffffffffffffffffffffffff1673ffffffffffffffffffffffffffffffffffffffff1681526020019250505060405180910390a160019050919050565b60008060009054906101000a900473ffffffffffffffffffffffffffffffffffffffff1673ffffffffffffffffffffffffffffffffffffffff163373ffffffffffffffffffffffffffffffffffffffff1614610518576040517f08c379a00000000000000000000000000000000000000000000000000000000081526004018080602001828103825260048152602001807f455f4e4f0000000000000000000000000000000000000000000000000000000081525060200191505060405180910390fd5b600060149054906101000a900460ff161561059b576040517f08c379a00000000000000000000000000000000000000000000000000000000081526004018080602001828103825260048152602001807f455f4e500000000000000000000000000000000000000000000000000000000081525060200191505060405180910390fd5b6001600060146101000a81548160ff0219169083151502179055507f2b2f45c94c569f5113ed5abe2ff6a15bcbf82f59654311dc55ceb3af23ff739033604051808273ffffffffffffffffffffffffffffffffffffffff1673ffffffffffffffffffffffffffffffffffffffff16815260200191505060405180910390a1600190509056fea165627a7a723058201c6428561b3abf6e1c98e449402fe6496ca13d7cc4f0477fe2bfc3ee1c1828d50029",
  "source": "pragma solidity ^0.5.0;\n\nimport \"./Ownable.sol\";\n\ncontract Stoppable is Ownable {\n\n    bool isRunning;\n    event EventPausedContract(address sender);\n    event EventResumedContract(address sender);\n\n    modifier onlyIfRunning {\n        require(\n            isRunning,\n            \"E_NR\"\n        );\n        _;\n    }\n    \n    modifier onlyIfPaused {\n        require(\n            !isRunning,\n            \"E_NP\"\n        );\n        _;\n    }\n\n    constructor(bool deployAsRunning) public {\n        isRunning = deployAsRunning;\n    }\n\n    function pauseContract() public onlyOwnerAccess onlyIfRunning returns(bool) {\n        isRunning = false;\n        emit EventPausedContract(msg.sender);\n        return true;\n    }\n\n    function resumeContract() public onlyOwnerAccess onlyIfPaused returns(bool) {\n        isRunning = true;\n        emit EventResumedContract(msg.sender);\n        return true;\n    }\n\n}",
  "sourcePath": "/Users/xu/Documents/Ethereum_Projects/B9Lab_Splitter/contracts/Stoppable.sol",
  "compiler": {
    "name": "solc",
    "version": "0.5.8+commit.23d335f2.Emscripten.clang"
  },
  "schemaVersion": "3.0.10",
  "updatedAt": "2019-06-12T08:56:17.527Z",
  "devdoc": {
    "methods": {}
  },
  "userdoc": {
    "methods": {}
  }
}