{
  "contractName": "Stoppable",
  "abi": [
    {
      "constant": false,
      "inputs": [
        {
          "name": "newOwner",
          "type": "address"
        }
      ],
      "name": "changeOwner",
      "outputs": [
        {
          "name": "",
          "type": "bool"
        }
      ],
      "payable": false,
      "stateMutability": "nonpayable",
      "type": "function"
    },
    {
      "inputs": [
        {
          "name": "deployAsRunning",
          "type": "bool"
        }
      ],
      "payable": false,
      "stateMutability": "nonpayable",
      "type": "constructor"
    },
    {
      "anonymous": false,
      "inputs": [
        {
          "indexed": false,
          "name": "sender",
          "type": "address"
        }
      ],
      "name": "eventPausedContract",
      "type": "event"
    },
    {
      "anonymous": false,
      "inputs": [
        {
          "indexed": false,
          "name": "sender",
          "type": "address"
        }
      ],
      "name": "eventResumedContract",
      "type": "event"
    },
    {
      "anonymous": false,
      "inputs": [
        {
          "indexed": false,
          "name": "sender",
          "type": "address"
        },
        {
          "indexed": false,
          "name": "newOwner",
          "type": "address"
        }
      ],
      "name": "eventOwnerChanged",
      "type": "event"
    },
    {
      "constant": false,
      "inputs": [],
      "name": "pauseContract",
      "outputs": [
        {
          "name": "",
          "type": "bool"
        }
      ],
      "payable": false,
      "stateMutability": "nonpayable",
      "type": "function"
    },
    {
      "constant": false,
      "inputs": [],
      "name": "resumeContract",
      "outputs": [
        {
          "name": "",
          "type": "bool"
        }
      ],
      "payable": false,
      "stateMutability": "nonpayable",
      "type": "function"
    }
  ],
  "bytecode": "0x608060405234801561001057600080fd5b506040516020806106f78339810180604052602081101561003057600080fd5b8101908080519060200190929190505050336000806101000a81548173ffffffffffffffffffffffffffffffffffffffff021916908373ffffffffffffffffffffffffffffffffffffffff16021790555080600060146101000a81548160ff0219169083151502179055505061064c806100ab6000396000f3fe608060405234801561001057600080fd5b50600436106100415760003560e01c8063439766ce14610046578063a6f9dae114610068578063c4bc5da5146100c4575b600080fd5b61004e6100e6565b604051808215151515815260200191505060405180910390f35b6100aa6004803603602081101561007e57600080fd5b81019080803573ffffffffffffffffffffffffffffffffffffffff1690602001909291905050506102b0565b604051808215151515815260200191505060405180910390f35b6100cc610454565b604051808215151515815260200191505060405180910390f35b60008060009054906101000a900473ffffffffffffffffffffffffffffffffffffffff1673ffffffffffffffffffffffffffffffffffffffff163373ffffffffffffffffffffffffffffffffffffffff16146101aa576040517f08c379a00000000000000000000000000000000000000000000000000000000081526004018080602001828103825260048152602001807f455f4e4f0000000000000000000000000000000000000000000000000000000081525060200191505060405180910390fd5b600060149054906101000a900460ff1661022c576040517f08c379a00000000000000000000000000000000000000000000000000000000081526004018080602001828103825260048152602001807f455f4e520000000000000000000000000000000000000000000000000000000081525060200191505060405180910390fd5b60008060146101000a81548160ff0219169083151502179055507f8c046ac297c31d8824de7c014cce6b547d154c98725c3fee831feb0371001fdd33604051808273ffffffffffffffffffffffffffffffffffffffff1673ffffffffffffffffffffffffffffffffffffffff16815260200191505060405180910390a16001905090565b60008060009054906101000a900473ffffffffffffffffffffffffffffffffffffffff1673ffffffffffffffffffffffffffffffffffffffff163373ffffffffffffffffffffffffffffffffffffffff1614610374576040517f08c379a00000000000000000000000000000000000000000000000000000000081526004018080602001828103825260048152602001807f455f4e4f0000000000000000000000000000000000000000000000000000000081525060200191505060405180910390fd5b816000806101000a81548173ffffffffffffffffffffffffffffffffffffffff021916908373ffffffffffffffffffffffffffffffffffffffff1602179055507f1107caf85c8f5e53d5e72224bfb91c64e0b98e51cd09737bcf2a21b0c89581c63383604051808373ffffffffffffffffffffffffffffffffffffffff1673ffffffffffffffffffffffffffffffffffffffff1681526020018273ffffffffffffffffffffffffffffffffffffffff1673ffffffffffffffffffffffffffffffffffffffff1681526020019250505060405180910390a160019050919050565b60008060009054906101000a900473ffffffffffffffffffffffffffffffffffffffff1673ffffffffffffffffffffffffffffffffffffffff163373ffffffffffffffffffffffffffffffffffffffff1614610518576040517f08c379a00000000000000000000000000000000000000000000000000000000081526004018080602001828103825260048152602001807f455f4e4f0000000000000000000000000000000000000000000000000000000081525060200191505060405180910390fd5b600060149054906101000a900460ff161561059b576040517f08c379a00000000000000000000000000000000000000000000000000000000081526004018080602001828103825260048152602001807f455f4e500000000000000000000000000000000000000000000000000000000081525060200191505060405180910390fd5b6001600060146101000a81548160ff0219169083151502179055507f2bc567dca7048c22f842593ab6b1e7984a6fa4b81b58c2ff364add19dbe3d72b33604051808273ffffffffffffffffffffffffffffffffffffffff1673ffffffffffffffffffffffffffffffffffffffff16815260200191505060405180910390a1600190509056fea165627a7a72305820bee1d1ba46a601d3e66511621a5870c744517da840d0ba43ab5a0ddbc95028040029",
  "source": "pragma solidity ^0.5.0;\n\ncontract Ownable {\n\n    address owner;\n    event eventOwnerChanged(address sender, address newOwner);\n\n    modifier onlyOwnerAccess {\n        require(\n            msg.sender == owner,\n            \"E_NO\"\n        );\n        _;\n    }\n\n    constructor() public {\n        owner = msg.sender;\n    }\n\n    function changeOwner(address newOwner) public onlyOwnerAccess returns(bool) {\n        owner = newOwner;\n        emit eventOwnerChanged(msg.sender, newOwner);\n        return true;\n    }\n\n}\n\ncontract Stoppable is Ownable {\n\n    bool isRunning;\n    event eventPausedContract(address sender);\n    event eventResumedContract(address sender);\n\n    modifier onlyIfRunning {\n        require(\n            isRunning,\n            \"E_NR\"\n        );\n        _;\n    }\n    \n    modifier onlyIfPaused {\n        require(\n            !isRunning,\n            \"E_NP\"\n        );\n        _;\n    }\n\n    constructor(bool deployAsRunning) public {\n        isRunning = deployAsRunning;\n    }\n\n    function pauseContract() public onlyOwnerAccess onlyIfRunning returns(bool) {\n        isRunning = false;\n        emit eventPausedContract(msg.sender);\n        return true;\n    }\n\n    function resumeContract() public onlyOwnerAccess onlyIfPaused returns(bool) {\n        isRunning = true;\n        emit eventResumedContract(msg.sender);\n        return true;\n    }\n\n}",
  "sourcePath": "/Users/xu/Documents/Ethereum_Projects/B9Lab_Splitter/contracts/BaseContract.sol",
  "compiler": {
    "name": "solc",
    "version": "0.5.8+commit.23d335f2.Emscripten.clang"
  },
  "schemaVersion": "3.0.10",
  "updatedAt": "2019-06-10T23:34:32.828Z",
  "devdoc": {
    "methods": {}
  },
  "userdoc": {
    "methods": {}
  }
}